S01B00006865617432736F756E645F74785F72657630332E73726563B2
S11300000C9434000C943E000C943E000C943E007E
S11300100C943E000C943E000C943E000C943E0064
S11300200C943E000C943E000C943E000C943E0054
S11300300C943E000C9442000C943E000C943E0040
S11300400C943E000C943E000C943E000C943E0034
S11300500C943E000C943E000C943E000C943E0024
S11300600C943E000C943E0011241FBECFEFD8E048
S1130070DEBFCDBF0E945A000C949B000C9400007C
S11300800C9463001F920F920FB60F9211248F935A
S11300909F9395B181E0892785B988E392E0909395
S11300A08500809384009F918F910F900FBE0F90D5
S11300B01F9018950E94400088E392E09093850079
S11300C080938400FFCF8FEE8093640084B114B8D2
S11300D085B19FEF95B987B1807887B988B18F676B
S11300E088B98AB11AB88BB19BB9209A2898219AF9
S11300F0299826982E98279A2F9840E060E881E660
S113010090E00E94880013BE15BE78940C948F0072
S11301102FB7F894FC01608340832FBF0895E4E671
S1130120F0E08081877F808381E0809381008093E9
S10D01306F0080E00895F894FFCFFB
S9030000FC
