S01B00006865617432736F756E645F74785F72657630332E73726563B2
S11300000C9434000C943E000C943E000C943E007E
S11300100C943E000C943E000C943E000C943E0064
S11300200C943E000C943E000C943E000C943E0054
S11300300C943E000C9443000C943E000C943E003F
S11300400C943E000C943E000C943E000C943E0034
S11300500C943E000C943E000C943E000C943E0024
S11300600C943E000C943E0011241FBECFEFD8E048
S1130070DEBFCDBF0E945B000C94A6000C94000070
S11300800E94680008951F920F920FB60F921124D8
S11300908F939F9395B181E0892785B988E392E096
S11300A090938500809384009F918F910F900FBE51
S11300B00F901F9018950E94400088E392E090935F
S11300C08500809384007894FFCF0E94990008955E
S11300D08FEE8093640084B114B885B19FEF95B915
S11300E087B1807887B988B18F6788B98AB11AB81F
S11300F08BB19BB984B1816084B985B18E7F85B998
S113010084B1826084B985B18D7F85B940E060E8AF
S113011081E690E00E94920013BE15BE78940E947E
S1130120650008952FB7F894FC01608340832FBFC6
S11301300895E4E6F0E08081877F808384E0809303
S1130140810081E080936F0080E00895F894FFCFF0
S9030000FC
