:100000000C9434000C943E000C943E000C943E0082
:100010000C943E000C943E000C943E000C943E0068
:100020000C943E000C943E000C943E000C943E0058
:100030000C943E000C943E000C943E000C943E0048
:100040000C9443000C943E000C943E000C943E0033
:100050000C943E000C943E000C943E000C943E0028
:100060000C943E000C943E0011241FBECFEFD8E04C
:10007000DEBFCDBF0E9456000C94A7000C94000078
:100080000E945E0008951F920F920FB60F921124E6
:100090008F939F9385B191E0892785B996BD9F91F4
:1000A0008F910F900FBE0F901F9018950E944000E7
:1000B00081E086BDFFCF0E949B0008958FEE809364
:1000C000640084B114B885B19FEF95B987B1807889
:1000D00087B988B18F6788B98AB11AB88BB19BB9D3
:1000E00084B1816084B985B18E7F85B984B1826025
:1000F00084B985B18D7F85B984B18F7B84B985B191
:100100008F7B85B984B1806884B985B18F7785B9D3
:1001100040E060E881E690E00E94940013BE15BEC6
:1001200078940E945B0008952FB7F894FC016083D7
:1001300040832FBF0895E4E6F0E080818F7D8083C7
:1001400083E085BD81E080936E0080E00895F8949F
:02015000FFCFDF
:00000001FF
